:1000000001288301B2280030CC000030CB00003042
:10001000CA000030C90043084204410440040319E7
:100020005828CD01CD0AC31B23280130C800031076
:10003000C00DC10DC20DC30DC80B17280130C8007B
:100040004808CD0713280130C8000310C90DCA0D98
:10005000CB0DCC0DC80B252843084702031D3A28B9
:1000600042084602031D3A2841084502031D3A286A
:1000700040084402031C4B284008C4024108031CEA
:10008000410FC5024208031C420FC6024308031C6D
:10009000430FC702491401300310C30CC20CC10C3A
:1000A000C00CFF3E031D4C280130CD02031D232848
:1000B0004C08C3004B08C2004A08C1004908C000F0
:1000C00008000030D9000030D8000030D7000030E0
:1000D000D6005108C3005008C2004F08C1004E08A6
:1000E000C0000030C7000F30C6004230C5004030AD
:1000F000C40003204308D5004208D4004108D300BF
:100100004008D2005508C3005408C2005308C1007B
:100110005208C0000030C700F430C6002430C500CB
:100120000030C400032043085902031DA1284208DF
:100130005802031DA12841085702031DA1284008A9
:100140005602031808000130D607003003180130AA
:10015000D707003003180130D807003003180130EA
:10016000D9076928E320BA281430DA070318DB0A14
:100170000030DB07013085005C08CE005D08CF0051
:10018000D001D101612085015C08CE005D08CF005F
:10019000D001D10161205A08DC070318DD0A5B0891
:1001A000DD07FA305C065D040319B428D0305C0624
:1001B000073003195D06031DBA28EC30DA0703186F
:1001C000DB0AFF30B928703090000E308600FA301C
:1001D000DC000030DD000A30DA000030DB0008000F
:02400E00E63E8C
:00000001FF
