:08000000803102288731FD2F39
:100E2C007030210099000F308C00FA302000AE0099
:100E3C000030AF000A30AC000030AD000800873144
:100E4C00162787312D2F1430AC070030AD3D3030D4
:100E5C0020008C002E08A0002F08A100A201A301E5
:100E6C008731AB27873120008C012E08A0002F087A
:100E7C00A100A201A3018731AB27873120002C08E8
:100E8C00AE072D08AF3DFA302E062F040319292F7B
:100E9C00D0302E06073003192F06031D2D2FEC30F2
:100EAC00AC07FF302C2F0030FC000030FB00003072
:100EBC00FA000030F900730872047104700403190D
:100ECC00A22FFD01FD0AF31B772F0130F035F10D38
:100EDC00F20DF30D890B6C2F0130F8007808FD072B
:100EEC00692F0130F935FA0DFB0DFC0D890B782FAC
:100EFC0073087702031D8C2F72087602031D8C2F4A
:100F0C0071087502031D8C2F70087402031C972F37
:100F1C007008F4027108F53B7208F63B7308F73B56
:100F2C0079140130F336F20CF10CF00C890B982F7C
:100F3C000130FD02031D772F7C08F3007B08F200C3
:100F4C007A08F1007908F000080000302000AB00AE
:100F5C000030AA000030A9000030A8002308F300DC
:100F6C002208F2002108F1002008F0000030F70000
:100F7C007A30F6001230F5000030F4008731592732
:100F8C00873173082000A7007208A6007108A5001D
:100F9C007008A4002708F3002608F2002508F100C9
:100FAC002408F0000130F700E830F6004830F50076
:100FBC000030F400873159278731730820002B0249
:100FCC00031DF22F72082A02031DF22F7108290249
:100FDC00031DF22F70082802031808000130A8071F
:100FEC000030A93D0030AA3D0030AB3DB42F2000AD
:040FFC008731252FE5
:020000040001F9
:04000E00E4FFFFDD2F
:00000001FF
